{
  "_format": "hh-sol-artifact-1",
  "contractName": "Staking",
  "sourceName": "contracts/Staking.sol",
  "abi": [
    {
      "inputs": [
        {
          "internalType": "contract IERC20",
          "name": "_token",
          "type": "address"
        }
      ],
      "stateMutability": "nonpayable",
      "type": "constructor"
    },
    {
      "anonymous": false,
      "inputs": [
        {
          "indexed": false,
          "internalType": "address",
          "name": "sender",
          "type": "address"
        },
        {
          "indexed": false,
          "internalType": "uint256",
          "name": "amount",
          "type": "uint256"
        },
        {
          "indexed": false,
          "internalType": "uint256",
          "name": "startsAt",
          "type": "uint256"
        },
        {
          "indexed": false,
          "internalType": "uint256",
          "name": "endsAt",
          "type": "uint256"
        }
      ],
      "name": "NewDepositor",
      "type": "event"
    },
    {
      "stateMutability": "payable",
      "type": "fallback"
    },
    {
      "inputs": [
        {
          "internalType": "address",
          "name": "",
          "type": "address"
        }
      ],
      "name": "endTimeOfStaking",
      "outputs": [
        {
          "internalType": "uint256",
          "name": "",
          "type": "uint256"
        }
      ],
      "stateMutability": "view",
      "type": "function"
    },
    {
      "inputs": [
        {
          "internalType": "address",
          "name": "",
          "type": "address"
        }
      ],
      "name": "lockTimeInMinutes",
      "outputs": [
        {
          "internalType": "uint256",
          "name": "",
          "type": "uint256"
        }
      ],
      "stateMutability": "view",
      "type": "function"
    },
    {
      "inputs": [],
      "name": "pullOutOfStaking",
      "outputs": [],
      "stateMutability": "nonpayable",
      "type": "function"
    },
    {
      "inputs": [
        {
          "internalType": "uint256",
          "name": "_amount",
          "type": "uint256"
        },
        {
          "internalType": "uint256",
          "name": "_lockTimeInMinutes",
          "type": "uint256"
        }
      ],
      "name": "putInStaking",
      "outputs": [],
      "stateMutability": "payable",
      "type": "function"
    },
    {
      "inputs": [
        {
          "internalType": "address",
          "name": "",
          "type": "address"
        }
      ],
      "name": "rewardAmountPerMinute",
      "outputs": [
        {
          "internalType": "uint256",
          "name": "",
          "type": "uint256"
        }
      ],
      "stateMutability": "view",
      "type": "function"
    },
    {
      "inputs": [],
      "name": "rewardRatePerMinute",
      "outputs": [
        {
          "internalType": "uint256",
          "name": "",
          "type": "uint256"
        }
      ],
      "stateMutability": "view",
      "type": "function"
    },
    {
      "inputs": [
        {
          "internalType": "address",
          "name": "",
          "type": "address"
        }
      ],
      "name": "stakingAmount",
      "outputs": [
        {
          "internalType": "uint256",
          "name": "",
          "type": "uint256"
        }
      ],
      "stateMutability": "view",
      "type": "function"
    },
    {
      "inputs": [],
      "name": "token",
      "outputs": [
        {
          "internalType": "contract IERC20",
          "name": "",
          "type": "address"
        }
      ],
      "stateMutability": "view",
      "type": "function"
    },
    {
      "stateMutability": "payable",
      "type": "receive"
    }
  ],
  "bytecode": "0x60806040526001805534801561001457600080fd5b5060405162000e9938038062000e99833981810160405281019061003891906100f3565b806000806101000a81548173ffffffffffffffffffffffffffffffffffffffff021916908373ffffffffffffffffffffffffffffffffffffffff16021790555050610120565b600080fd5b600073ffffffffffffffffffffffffffffffffffffffff82169050919050565b60006100ae82610083565b9050919050565b60006100c0826100a3565b9050919050565b6100d0816100b5565b81146100db57600080fd5b50565b6000815190506100ed816100c7565b92915050565b6000602082840312156101095761010861007e565b5b6000610117848285016100de565b91505092915050565b610d6980620001306000396000f3fe60806040526004361061007f5760003560e01c8063c8f646b41161004e578063c8f646b414610135578063dc86f21714610160578063e8f7b1ee1461019d578063fc0c546a146101da57610086565b80630f73770a1461008857806335bf96de1461009f5780635e3d1578146100dc578063abe0cd83146100f857610086565b3661008657005b005b34801561009457600080fd5b5061009d610205565b005b3480156100ab57600080fd5b506100c660048036038101906100c191906108e5565b610515565b6040516100d3919061092b565b60405180910390f35b6100f660048036038101906100f19190610972565b61052d565b005b34801561010457600080fd5b5061011f600480360381019061011a91906108e5565b610810565b60405161012c919061092b565b60405180910390f35b34801561014157600080fd5b5061014a610828565b604051610157919061092b565b60405180910390f35b34801561016c57600080fd5b50610187600480360381019061018291906108e5565b61082e565b604051610194919061092b565b60405180910390f35b3480156101a957600080fd5b506101c460048036038101906101bf91906108e5565b610846565b6040516101d1919061092b565b60405180910390f35b3480156101e657600080fd5b506101ef61085e565b6040516101fc9190610a11565b60405180910390f35b600460003373ffffffffffffffffffffffffffffffffffffffff1673ffffffffffffffffffffffffffffffffffffffff16815260200190815260200160002054421015610287576040517f08c379a000000000000000000000000000000000000000000000000000000000815260040161027e90610a89565b60405180910390fd5b6000600360003373ffffffffffffffffffffffffffffffffffffffff1673ffffffffffffffffffffffffffffffffffffffff16815260200190815260200160002054600560003373ffffffffffffffffffffffffffffffffffffffff1673ffffffffffffffffffffffffffffffffffffffff168152602001908152602001600020546103139190610ad8565b600260003373ffffffffffffffffffffffffffffffffffffffff1673ffffffffffffffffffffffffffffffffffffffff1681526020019081526020016000205461035d9190610b1a565b90506000600260003373ffffffffffffffffffffffffffffffffffffffff1673ffffffffffffffffffffffffffffffffffffffff168152602001908152602001600020819055506000600460003373ffffffffffffffffffffffffffffffffffffffff1673ffffffffffffffffffffffffffffffffffffffff168152602001908152602001600020819055506000600560003373ffffffffffffffffffffffffffffffffffffffff1673ffffffffffffffffffffffffffffffffffffffff168152602001908152602001600020819055506000600360003373ffffffffffffffffffffffffffffffffffffffff1673ffffffffffffffffffffffffffffffffffffffff1681526020019081526020016000208190555060008054906101000a900473ffffffffffffffffffffffffffffffffffffffff1673ffffffffffffffffffffffffffffffffffffffff1663a9059cbb33836040518363ffffffff1660e01b81526004016104ce929190610b5d565b6020604051808303816000875af11580156104ed573d6000803e3d6000fd5b505050506040513d601f19601f820116820180604052508101906105119190610bbe565b5050565b60046020528060005260406000206000915090505481565b6000600260003373ffffffffffffffffffffffffffffffffffffffff1673ffffffffffffffffffffffffffffffffffffffff16815260200190815260200160002054146105af576040517f08c379a00000000000000000000000000000000000000000000000000000000081526004016105a690610c37565b60405180910390fd5b81600260003373ffffffffffffffffffffffffffffffffffffffff1673ffffffffffffffffffffffffffffffffffffffff1681526020019081526020016000208190555080600360003373ffffffffffffffffffffffffffffffffffffffff1673ffffffffffffffffffffffffffffffffffffffff16815260200190815260200160002081905550603c816106449190610ad8565b4261064f9190610b1a565b600460003373ffffffffffffffffffffffffffffffffffffffff1673ffffffffffffffffffffffffffffffffffffffff168152602001908152602001600020819055506064600154836106a29190610ad8565b6106ac9190610c86565b600560003373ffffffffffffffffffffffffffffffffffffffff1673ffffffffffffffffffffffffffffffffffffffff1681526020019081526020016000208190555060008054906101000a900473ffffffffffffffffffffffffffffffffffffffff1673ffffffffffffffffffffffffffffffffffffffff166323b872dd3330856040518463ffffffff1660e01b815260040161074c93929190610cb7565b6020604051808303816000875af115801561076b573d6000803e3d6000fd5b505050506040513d601f19601f8201168201806040525081019061078f9190610bbe565b507fdf0c03fdafe9721d70230fd56f753ff9e949b2074624a97dad405218312554a0338342600360003373ffffffffffffffffffffffffffffffffffffffff1673ffffffffffffffffffffffffffffffffffffffff168152602001908152602001600020546040516108049493929190610cee565b60405180910390a15050565b60056020528060005260406000206000915090505481565b60015481565b60036020528060005260406000206000915090505481565b60026020528060005260406000206000915090505481565b60008054906101000a900473ffffffffffffffffffffffffffffffffffffffff1681565b600080fd5b600073ffffffffffffffffffffffffffffffffffffffff82169050919050565b60006108b282610887565b9050919050565b6108c2816108a7565b81146108cd57600080fd5b50565b6000813590506108df816108b9565b92915050565b6000602082840312156108fb576108fa610882565b5b6000610909848285016108d0565b91505092915050565b6000819050919050565b61092581610912565b82525050565b6000602082019050610940600083018461091c565b92915050565b61094f81610912565b811461095a57600080fd5b50565b60008135905061096c81610946565b92915050565b6000806040838503121561098957610988610882565b5b60006109978582860161095d565b92505060206109a88582860161095d565b9150509250929050565b6000819050919050565b60006109d76109d26109cd84610887565b6109b2565b610887565b9050919050565b60006109e9826109bc565b9050919050565b60006109fb826109de565b9050919050565b610a0b816109f0565b82525050565b6000602082019050610a266000830184610a02565b92915050565b600082825260208201905092915050565b7f5374616b696e672074696d65206973206e6f74206f7665720000000000000000600082015250565b6000610a73601883610a2c565b9150610a7e82610a3d565b602082019050919050565b60006020820190508181036000830152610aa281610a66565b9050919050565b7f4e487b7100000000000000000000000000000000000000000000000000000000600052601160045260246000fd5b6000610ae382610912565b9150610aee83610912565b9250828202610afc81610912565b91508282048414831517610b1357610b12610aa9565b5b5092915050565b6000610b2582610912565b9150610b3083610912565b9250828201905080821115610b4857610b47610aa9565b5b92915050565b610b57816108a7565b82525050565b6000604082019050610b726000830185610b4e565b610b7f602083018461091c565b9392505050565b60008115159050919050565b610b9b81610b86565b8114610ba657600080fd5b50565b600081519050610bb881610b92565b92915050565b600060208284031215610bd457610bd3610882565b5b6000610be284828501610ba9565b91505092915050565b7f616c726561647920696e207374616b696e670000000000000000000000000000600082015250565b6000610c21601283610a2c565b9150610c2c82610beb565b602082019050919050565b60006020820190508181036000830152610c5081610c14565b9050919050565b7f4e487b7100000000000000000000000000000000000000000000000000000000600052601260045260246000fd5b6000610c9182610912565b9150610c9c83610912565b925082610cac57610cab610c57565b5b828204905092915050565b6000606082019050610ccc6000830186610b4e565b610cd96020830185610b4e565b610ce6604083018461091c565b949350505050565b6000608082019050610d036000830187610b4e565b610d10602083018661091c565b610d1d604083018561091c565b610d2a606083018461091c565b9594505050505056fea2646970667358221220ad41a8410ad67c4a1d4a658c434919684cb985e0880479915ebfc14d7804fbd864736f6c63430008110033",
  "linkReferences": {},
  "deployedLinkReferences": {}
}